{
  "_format": "hh-sol-artifact-1",
  "contractName": "DutchAuction",
  "sourceName": "contracts/DutchAuction.sol",
  "abi": [
    {
      "inputs": [
        {
          "internalType": "uint256",
          "name": "_reservePrice",
          "type": "uint256"
        },
        {
          "internalType": "address",
          "name": "_judgeAddress",
          "type": "address"
        },
        {
          "internalType": "uint256",
          "name": "_numBlocksAuctionOpen",
          "type": "uint256"
        },
        {
          "internalType": "uint256",
          "name": "_offerPriceDecrement",
          "type": "uint256"
        }
      ],
      "stateMutability": "nonpayable",
      "type": "constructor"
    },
    {
      "inputs": [],
      "name": "auctionOver",
      "outputs": [
        {
          "internalType": "bool",
          "name": "",
          "type": "bool"
        }
      ],
      "stateMutability": "view",
      "type": "function"
    },
    {
      "inputs": [],
      "name": "bid",
      "outputs": [
        {
          "internalType": "address",
          "name": "",
          "type": "address"
        }
      ],
      "stateMutability": "payable",
      "type": "function"
    },
    {
      "inputs": [],
      "name": "finalize",
      "outputs": [],
      "stateMutability": "nonpayable",
      "type": "function"
    },
    {
      "inputs": [],
      "name": "finalized",
      "outputs": [
        {
          "internalType": "bool",
          "name": "",
          "type": "bool"
        }
      ],
      "stateMutability": "view",
      "type": "function"
    },
    {
      "inputs": [],
      "name": "getCurrentPrice",
      "outputs": [
        {
          "internalType": "uint256",
          "name": "",
          "type": "uint256"
        }
      ],
      "stateMutability": "view",
      "type": "function"
    },
    {
      "inputs": [],
      "name": "judgeAddress",
      "outputs": [
        {
          "internalType": "address",
          "name": "",
          "type": "address"
        }
      ],
      "stateMutability": "view",
      "type": "function"
    },
    {
      "inputs": [],
      "name": "nop",
      "outputs": [
        {
          "internalType": "bool",
          "name": "",
          "type": "bool"
        }
      ],
      "stateMutability": "nonpayable",
      "type": "function"
    },
    {
      "inputs": [],
      "name": "owner",
      "outputs": [
        {
          "internalType": "address payable",
          "name": "",
          "type": "address"
        }
      ],
      "stateMutability": "view",
      "type": "function"
    },
    {
      "inputs": [
        {
          "internalType": "uint256",
          "name": "refundAmount",
          "type": "uint256"
        }
      ],
      "name": "refund",
      "outputs": [],
      "stateMutability": "nonpayable",
      "type": "function"
    },
    {
      "inputs": [],
      "name": "refunded",
      "outputs": [
        {
          "internalType": "bool",
          "name": "",
          "type": "bool"
        }
      ],
      "stateMutability": "view",
      "type": "function"
    },
    {
      "inputs": [],
      "name": "reservePrice",
      "outputs": [
        {
          "internalType": "uint256",
          "name": "",
          "type": "uint256"
        }
      ],
      "stateMutability": "view",
      "type": "function"
    },
    {
      "inputs": [],
      "name": "winner",
      "outputs": [
        {
          "internalType": "address",
          "name": "",
          "type": "address"
        }
      ],
      "stateMutability": "view",
      "type": "function"
    }
  ],
  "bytecode": "0x60806040526040518060400160405280600f81526020017f44555443482041554354494f4e3a2000000000000000000000000000000000008152506000908051906020019062000051929190620002de565b503480156200005f57600080fd5b5060405162001d0838038062001d088339818101604052810190620000859190620003bc565b60008211620000cb576040517f08c379a0000000000000000000000000000000000000000000000000000000008152600401620000c290620004c4565b60405180910390fd5b6000811162000111576040517f08c379a000000000000000000000000000000000000000000000000000000000815260040162000108906200052a565b60405180910390fd5b6000841162000157576040517f08c379a00000000000000000000000000000000000000000000000000000000081526004016200014e9062000508565b60405180910390fd5b8273ffffffffffffffffffffffffffffffffffffffff163373ffffffffffffffffffffffffffffffffffffffff161415620001c9576040517f08c379a0000000000000000000000000000000000000000000000000000000008152600401620001c090620004e6565b60405180910390fd5b8360018190555082600260006101000a81548173ffffffffffffffffffffffffffffffffffffffff021916908373ffffffffffffffffffffffffffffffffffffffff1602179055508060038190555033600760006101000a81548173ffffffffffffffffffffffffffffffffffffffff021916908373ffffffffffffffffffffffffffffffffffffffff1602179055508082620002679190620005ba565b6001546200027691906200055d565b600581905550436006819055506000600860146101000a81548160ff0219169083151502179055506000600860156101000a81548160ff0219169083151502179055506000600860166101000a81548160ff0219169083151502179055505050505062000837565b828054620002ec9062000659565b90600052602060002090601f0160209004810192826200031057600085556200035c565b82601f106200032b57805160ff19168380011785556200035c565b828001600101855582156200035c579182015b828111156200035b5782518255916020019190600101906200033e565b5b5090506200036b91906200036f565b5090565b5b808211156200038a57600081600090555060010162000370565b5090565b6000815190506200039f8162000803565b92915050565b600081519050620003b6816200081d565b92915050565b60008060008060808587031215620003d357600080fd5b6000620003e387828801620003a5565b9450506020620003f6878288016200038e565b93505060406200040987828801620003a5565b92505060606200041c87828801620003a5565b91505092959194509250565b600062000437602c836200054c565b91506200044482620006ed565b604082019050919050565b60006200045e601f836200054c565b91506200046b826200073c565b602082019050919050565b6000620004856025836200054c565b9150620004928262000765565b604082019050919050565b6000620004ac602d836200054c565b9150620004b982620007b4565b604082019050919050565b60006020820190508181036000830152620004df8162000428565b9050919050565b6000602082019050818103600083015262000501816200044f565b9050919050565b60006020820190508181036000830152620005238162000476565b9050919050565b6000602082019050818103600083015262000545816200049d565b9050919050565b600082825260208201905092915050565b60006200056a826200064f565b915062000577836200064f565b9250827fffffffffffffffffffffffffffffffffffffffffffffffffffffffffffffffff03821115620005af57620005ae6200068f565b5b828201905092915050565b6000620005c7826200064f565b9150620005d4836200064f565b9250817fffffffffffffffffffffffffffffffffffffffffffffffffffffffffffffffff048311821515161562000610576200060f6200068f565b5b828202905092915050565b600062000628826200062f565b9050919050565b600073ffffffffffffffffffffffffffffffffffffffff82169050919050565b6000819050919050565b600060028204905060018216806200067257607f821691505b60208210811415620006895762000688620006be565b5b50919050565b7f4e487b7100000000000000000000000000000000000000000000000000000000600052601160045260246000fd5b7f4e487b7100000000000000000000000000000000000000000000000000000000600052602260045260246000fd5b7f41756374696f6e206d757374206265206f70656e20666f72206d6f726520746860008201527f616e203020626c6f636b732e0000000000000000000000000000000000000000602082015250565b7f636f6e7472616374206f776e65722063616e6e6f74206265206a756467652e00600082015250565b7f52657365727665207072696365206d757374206265206772656174657220746860008201527f616e203021000000000000000000000000000000000000000000000000000000602082015250565b7f4f666665722070726963652064656372656d656e74206d75737420626520677260008201527f6561746572207468616e20302e00000000000000000000000000000000000000602082015250565b6200080e816200061b565b81146200081a57600080fd5b50565b62000828816200064f565b81146200083457600080fd5b50565b6114c180620008476000396000f3fe6080604052600436106100a75760003560e01c80638da5cb5b116100645780638da5cb5b1461018b578063b3f05b97146101b6578063db2e1eed146101e1578063dfbf53ae1461020c578063eb91d37e14610237578063f283511f14610262576100a7565b806312f53950146100ac5780631998aeef146100d7578063278ecde1146100f55780632e9c58bb1461011e5780633c03d8be146101495780634bb278f314610174575b600080fd5b3480156100b857600080fd5b506100c161028d565b6040516100ce9190610f01565b60405180910390f35b6100df6102a0565b6040516100ec9190610ecb565b60405180910390f35b34801561010157600080fd5b5061011c60048036038101906101179190610cad565b610584565b005b34801561012a57600080fd5b50610133610860565b6040516101409190610f01565b60405180910390f35b34801561015557600080fd5b5061015e610869565b60405161016b9190610ecb565b60405180910390f35b34801561018057600080fd5b5061018961088f565b005b34801561019757600080fd5b506101a0610be6565b6040516101ad9190610ee6565b60405180910390f35b3480156101c257600080fd5b506101cb610c0c565b6040516101d89190610f01565b60405180910390f35b3480156101ed57600080fd5b506101f6610c1f565b604051610203919061107c565b60405180910390f35b34801561021857600080fd5b50610221610c25565b60405161022e9190610ecb565b60405180910390f35b34801561024357600080fd5b5061024c610c4b565b604051610259919061107c565b60405180910390f35b34801561026e57600080fd5b50610277610c85565b6040516102849190610f01565b60405180910390f35b600860169054906101000a900460ff1681565b6000600260009054906101000a900473ffffffffffffffffffffffffffffffffffffffff1673ffffffffffffffffffffffffffffffffffffffff163373ffffffffffffffffffffffffffffffffffffffff161415610333576040517f08c379a000000000000000000000000000000000000000000000000000000000815260040161032a90610f9c565b60405180910390fd5b600060065443610343919061110d565b905060006003548261035591906110b3565b600554610362919061110d565b905060015481101561038a576001600860146101000a81548160ff0219169083151502179055505b600860149054906101000a900460ff16156103da576040517f08c379a00000000000000000000000000000000000000000000000000000000081526004016103d190610f1c565b60405180910390fd5b803410610572576001600860146101000a81548160ff02191690831515021790555033600860006101000a81548173ffffffffffffffffffffffffffffffffffffffff021916908373ffffffffffffffffffffffffffffffffffffffff16021790555034600481905550600073ffffffffffffffffffffffffffffffffffffffff16600260009054906101000a900473ffffffffffffffffffffffffffffffffffffffff1673ffffffffffffffffffffffffffffffffffffffff16141561056d576000600760009054906101000a900473ffffffffffffffffffffffffffffffffffffffff1673ffffffffffffffffffffffffffffffffffffffff166004546040516104e590610eb6565b60006040518083038185875af1925050503d8060008114610522576040519150601f19603f3d011682016040523d82523d6000602084013e610527565b606091505b505090508061056b576040517f08c379a000000000000000000000000000000000000000000000000000000000815260040161056290610f5c565b60405180910390fd5b505b61057c565b61057b34610584565b5b339250505090565b6000600260009054906101000a900473ffffffffffffffffffffffffffffffffffffffff1673ffffffffffffffffffffffffffffffffffffffff163373ffffffffffffffffffffffffffffffffffffffff1614156107af57600860169054906101000a900460ff161561062c576040517f08c379a00000000000000000000000000000000000000000000000000000000081526004016106239061103c565b60405180910390fd5b600860159054906101000a900460ff161561067c576040517f08c379a000000000000000000000000000000000000000000000000000000000815260040161067390610f3c565b60405180910390fd5b60045482146106c0576040517f08c379a00000000000000000000000000000000000000000000000000000000081526004016106b790610ffc565b60405180910390fd5b6001600860166101000a81548160ff021916908315150217905550600860009054906101000a900473ffffffffffffffffffffffffffffffffffffffff1673ffffffffffffffffffffffffffffffffffffffff168260405161072190610eb6565b60006040518083038185875af1925050503d806000811461075e576040519150601f19603f3d011682016040523d82523d6000602084013e610763565b606091505b505080915050806107a9576040517f08c379a00000000000000000000000000000000000000000000000000000000081526004016107a090610fdc565b60405180910390fd5b5061085d565b3373ffffffffffffffffffffffffffffffffffffffff16826040516107d390610eb6565b60006040518083038185875af1925050503d8060008114610810576040519150601f19603f3d011682016040523d82523d6000602084013e610815565b606091505b5050809150508061085b576040517f08c379a000000000000000000000000000000000000000000000000000000000815260040161085290610fdc565b60405180910390fd5b505b50565b60006001905090565b600260009054906101000a900473ffffffffffffffffffffffffffffffffffffffff1681565b600073ffffffffffffffffffffffffffffffffffffffff16600260009054906101000a900473ffffffffffffffffffffffffffffffffffffffff1673ffffffffffffffffffffffffffffffffffffffff161415610921576040517f08c379a00000000000000000000000000000000000000000000000000000000081526004016109189061101c565b60405180910390fd5b600860149054906101000a900460ff16610970576040517f08c379a00000000000000000000000000000000000000000000000000000000081526004016109679061105c565b60405180910390fd5b600260009054906101000a900473ffffffffffffffffffffffffffffffffffffffff1673ffffffffffffffffffffffffffffffffffffffff163373ffffffffffffffffffffffffffffffffffffffff161480610a195750600860009054906101000a900473ffffffffffffffffffffffffffffffffffffffff1673ffffffffffffffffffffffffffffffffffffffff163373ffffffffffffffffffffffffffffffffffffffff16145b610a58576040517f08c379a0000000000000000000000000000000000000000000000000000000008152600401610a4f90610fbc565b60405180910390fd5b600860159054906101000a900460ff1615610aa8576040517f08c379a0000000000000000000000000000000000000000000000000000000008152600401610a9f90610f3c565b60405180910390fd5b600860169054906101000a900460ff1615610af8576040517f08c379a0000000000000000000000000000000000000000000000000000000008152600401610aef90610f7c565b60405180910390fd5b6001600860156101000a81548160ff0219169083151502179055506000600760009054906101000a900473ffffffffffffffffffffffffffffffffffffffff1673ffffffffffffffffffffffffffffffffffffffff16600454604051610b5d90610eb6565b60006040518083038185875af1925050503d8060008114610b9a576040519150601f19603f3d011682016040523d82523d6000602084013e610b9f565b606091505b5050905080610be3576040517f08c379a0000000000000000000000000000000000000000000000000000000008152600401610bda90610f5c565b60405180910390fd5b50565b600760009054906101000a900473ffffffffffffffffffffffffffffffffffffffff1681565b600860159054906101000a900460ff1681565b60015481565b600860009054906101000a900473ffffffffffffffffffffffffffffffffffffffff1681565b60008060065443610c5c919061110d565b9050600060035482610c6e91906110b3565b600554610c7b919061110d565b9050809250505090565b600860149054906101000a900460ff1681565b600081359050610ca781611474565b92915050565b600060208284031215610cbf57600080fd5b6000610ccd84828501610c98565b91505092915050565b610cdf81611153565b82525050565b610cee81611141565b82525050565b610cfd81611165565b82525050565b6000610d10602c836110a2565b9150610d1b826111ca565b604082019050919050565b6000610d33601a836110a2565b9150610d3e82611219565b602082019050919050565b6000610d56602a836110a2565b9150610d6182611242565b604082019050919050565b6000610d79601d836110a2565b9150610d8482611291565b602082019050919050565b6000610d9c6011836110a2565b9150610da7826112ba565b602082019050919050565b6000610dbf602f836110a2565b9150610dca826112e3565b604082019050919050565b6000610de26015836110a2565b9150610ded82611332565b602082019050919050565b6000610e05602b836110a2565b9150610e108261135b565b604082019050919050565b6000610e28602b836110a2565b9150610e33826113aa565b604082019050919050565b6000610e4b6020836110a2565b9150610e56826113f9565b602082019050919050565b6000610e6e600083611097565b9150610e7982611422565b600082019050919050565b6000610e916031836110a2565b9150610e9c82611425565b604082019050919050565b610eb081611191565b82525050565b6000610ec182610e61565b9150819050919050565b6000602082019050610ee06000830184610ce5565b92915050565b6000602082019050610efb6000830184610cd6565b92915050565b6000602082019050610f166000830184610cf4565b92915050565b60006020820190508181036000830152610f3581610d03565b9050919050565b60006020820190508181036000830152610f5581610d26565b9050919050565b60006020820190508181036000830152610f7581610d49565b9050919050565b60006020820190508181036000830152610f9581610d6c565b9050919050565b60006020820190508181036000830152610fb581610d8f565b9050919050565b60006020820190508181036000830152610fd581610db2565b9050919050565b60006020820190508181036000830152610ff581610dd5565b9050919050565b6000602082019050818103600083015261101581610df8565b9050919050565b6000602082019050818103600083015261103581610e1b565b9050919050565b6000602082019050818103600083015261105581610e3e565b9050919050565b6000602082019050818103600083015261107581610e84565b9050919050565b60006020820190506110916000830184610ea7565b92915050565b600081905092915050565b600082825260208201905092915050565b60006110be82611191565b91506110c983611191565b9250817fffffffffffffffffffffffffffffffffffffffffffffffffffffffffffffffff04831182151516156111025761110161119b565b5b828202905092915050565b600061111882611191565b915061112383611191565b9250828210156111365761113561119b565b5b828203905092915050565b600061114c82611171565b9050919050565b600061115e82611171565b9050919050565b60008115159050919050565b600073ffffffffffffffffffffffffffffffffffffffff82169050919050565b6000819050919050565b7f4e487b7100000000000000000000000000000000000000000000000000000000600052601160045260246000fd5b7f41756374696f6e206973206f7665722e204e6f7420616363657074696e67206260008201527f69647320616e796d6f72652e0000000000000000000000000000000000000000602082015250565b7f41756374696f6e20616c72656164792066696e616c697a65642e000000000000600082015250565b7f4661696c656420746f207061792077696e6e696e672062696420616d6f756e7460008201527f20746f206f776e65722e00000000000000000000000000000000000000000000602082015250565b7f57696e6e696e672062696420616c726561647920726566756e6465642e000000600082015250565b7f6a756467652063616e6e6f742062696421000000000000000000000000000000600082015250565b7f46696e616c697a652063616e206f6e6c792062652063616c6c6564206279206a60008201527f75646765206f722077696e6e6572210000000000000000000000000000000000602082015250565b7f4661696c656420746f20726566756e64206269642e0000000000000000000000600082015250565b7f526566756e64206d75737420626520657175616c20746f2077696e6e696e672060008201527f62696420616d6f756e7421000000000000000000000000000000000000000000602082015250565b7f43616e6e6f742063616c6c2066696e616c697a65206966206e6f206a7564676560008201527f2073706563696669656421000000000000000000000000000000000000000000602082015250565b7f4a756467652063616e206f6e6c792063616c6c20726566756e64206f6e636521600082015250565b50565b7f43616e6e6f742063616c6c2066696e616c697a65207768696c6520617563746960008201527f6f6e207374696c6c206f6e676f696e6721000000000000000000000000000000602082015250565b61147d81611191565b811461148857600080fd5b5056fea26469706673582212202c6d6a432dedf051b961112018db62f32bfc8a3c133082a877f73e547d7eefdb64736f6c63430008040033",
  "linkReferences": {},
  "deployedLinkReferences": {}
}