{
  "_format": "hh-sol-artifact-1",
  "contractName": "DutchAuction",
  "sourceName": "contracts/DutchAuction.sol",
  "abi": [
    {
      "inputs": [
        {
          "internalType": "uint256",
          "name": "_reservePrice",
          "type": "uint256"
        },
        {
          "internalType": "address",
          "name": "_judgeAddress",
          "type": "address"
        },
        {
          "internalType": "uint256",
          "name": "_numBlocksAuctionOpen",
          "type": "uint256"
        },
        {
          "internalType": "uint256",
          "name": "_offerPriceDecrement",
          "type": "uint256"
        }
      ],
      "stateMutability": "nonpayable",
      "type": "constructor"
    },
    {
      "inputs": [],
      "name": "auctionOver",
      "outputs": [
        {
          "internalType": "bool",
          "name": "",
          "type": "bool"
        }
      ],
      "stateMutability": "view",
      "type": "function"
    },
    {
      "inputs": [],
      "name": "bid",
      "outputs": [
        {
          "internalType": "address",
          "name": "",
          "type": "address"
        }
      ],
      "stateMutability": "payable",
      "type": "function"
    },
    {
      "inputs": [],
      "name": "finalize",
      "outputs": [],
      "stateMutability": "nonpayable",
      "type": "function"
    },
    {
      "inputs": [],
      "name": "finalized",
      "outputs": [
        {
          "internalType": "bool",
          "name": "",
          "type": "bool"
        }
      ],
      "stateMutability": "view",
      "type": "function"
    },
    {
      "inputs": [],
      "name": "getCurrentPrice",
      "outputs": [
        {
          "internalType": "uint256",
          "name": "",
          "type": "uint256"
        }
      ],
      "stateMutability": "view",
      "type": "function"
    },
    {
      "inputs": [],
      "name": "nop",
      "outputs": [
        {
          "internalType": "bool",
          "name": "",
          "type": "bool"
        }
      ],
      "stateMutability": "nonpayable",
      "type": "function"
    },
    {
      "inputs": [],
      "name": "owner",
      "outputs": [
        {
          "internalType": "address payable",
          "name": "",
          "type": "address"
        }
      ],
      "stateMutability": "view",
      "type": "function"
    },
    {
      "inputs": [
        {
          "internalType": "uint256",
          "name": "refundAmount",
          "type": "uint256"
        }
      ],
      "name": "refund",
      "outputs": [],
      "stateMutability": "nonpayable",
      "type": "function"
    },
    {
      "inputs": [],
      "name": "refunded",
      "outputs": [
        {
          "internalType": "bool",
          "name": "",
          "type": "bool"
        }
      ],
      "stateMutability": "view",
      "type": "function"
    },
    {
      "inputs": [],
      "name": "reservePrice",
      "outputs": [
        {
          "internalType": "uint256",
          "name": "",
          "type": "uint256"
        }
      ],
      "stateMutability": "view",
      "type": "function"
    },
    {
      "inputs": [],
      "name": "winner",
      "outputs": [
        {
          "internalType": "address",
          "name": "",
          "type": "address"
        }
      ],
      "stateMutability": "view",
      "type": "function"
    }
  ],
  "bytecode": "0x60806040526040518060400160405280600f81526020017f44555443482041554354494f4e3a20000000000000000000000000000000000081525060009080519060200190620000519291906200042b565b503480156200005f57600080fd5b50604051620022d3380380620022d3833981810160405281019062000085919062000509565b8273ffffffffffffffffffffffffffffffffffffffff163373ffffffffffffffffffffffffffffffffffffffff1614156200010657620001056040518060400160405280601f81526020017f6d6573736167652073656e646572206973206a756467652061646472657373008152506200035f60201b62000dfa1760201c565b5b600082116200014c576040517f08c379a0000000000000000000000000000000000000000000000000000000008152600401620001439062000676565b60405180910390fd5b6000811162000192576040517f08c379a00000000000000000000000000000000000000000000000000000000081526004016200018990620006dc565b60405180910390fd5b60008411620001d8576040517f08c379a0000000000000000000000000000000000000000000000000000000008152600401620001cf90620006ba565b60405180910390fd5b8273ffffffffffffffffffffffffffffffffffffffff163373ffffffffffffffffffffffffffffffffffffffff1614156200024a576040517f08c379a0000000000000000000000000000000000000000000000000000000008152600401620002419062000698565b60405180910390fd5b8360018190555082600260006101000a81548173ffffffffffffffffffffffffffffffffffffffff021916908373ffffffffffffffffffffffffffffffffffffffff1602179055508060038190555033600760006101000a81548173ffffffffffffffffffffffffffffffffffffffff021916908373ffffffffffffffffffffffffffffffffffffffff1602179055508082620002e8919062000777565b600154620002f791906200071a565b600581905550436006819055506000600860146101000a81548160ff0219169083151502179055506000600860156101000a81548160ff0219169083151502179055506000600860166101000a81548160ff0219169083151502179055505050505062000a3b565b620003ff8160405160240162000376919062000652565b6040516020818303038152906040527f41304fac000000000000000000000000000000000000000000000000000000007bffffffffffffffffffffffffffffffffffffffffffffffffffffffff19166020820180517bffffffffffffffffffffffffffffffffffffffffffffffffffffffff83818316178352505050506200040260201b60201c565b50565b60008151905060006a636f6e736f6c652e6c6f679050602083016000808483855afa5050505050565b82805462000439906200084c565b90600052602060002090601f0160209004810192826200045d5760008555620004a9565b82601f106200047857805160ff1916838001178555620004a9565b82800160010185558215620004a9579182015b82811115620004a85782518255916020019190600101906200048b565b5b509050620004b89190620004bc565b5090565b5b80821115620004d7576000816000905550600101620004bd565b5090565b600081519050620004ec8162000a07565b92915050565b600081519050620005038162000a21565b92915050565b600080600080608085870312156200052057600080fd5b60006200053087828801620004f2565b94505060206200054387828801620004db565b93505060406200055687828801620004f2565b92505060606200056987828801620004f2565b91505092959194509250565b60006200058282620006fe565b6200058e818562000709565b9350620005a081856020860162000816565b620005ab81620008e0565b840191505092915050565b6000620005c5602c8362000709565b9150620005d282620008f1565b604082019050919050565b6000620005ec601f8362000709565b9150620005f98262000940565b602082019050919050565b60006200061360258362000709565b9150620006208262000969565b604082019050919050565b60006200063a602d8362000709565b91506200064782620009b8565b604082019050919050565b600060208201905081810360008301526200066e818462000575565b905092915050565b600060208201905081810360008301526200069181620005b6565b9050919050565b60006020820190508181036000830152620006b381620005dd565b9050919050565b60006020820190508181036000830152620006d58162000604565b9050919050565b60006020820190508181036000830152620006f7816200062b565b9050919050565b600081519050919050565b600082825260208201905092915050565b600062000727826200080c565b915062000734836200080c565b9250827fffffffffffffffffffffffffffffffffffffffffffffffffffffffffffffffff038211156200076c576200076b62000882565b5b828201905092915050565b600062000784826200080c565b915062000791836200080c565b9250817fffffffffffffffffffffffffffffffffffffffffffffffffffffffffffffffff0483118215151615620007cd57620007cc62000882565b5b828202905092915050565b6000620007e582620007ec565b9050919050565b600073ffffffffffffffffffffffffffffffffffffffff82169050919050565b6000819050919050565b60005b838110156200083657808201518184015260208101905062000819565b8381111562000846576000848401525b50505050565b600060028204905060018216806200086557607f821691505b602082108114156200087c576200087b620008b1565b5b50919050565b7f4e487b7100000000000000000000000000000000000000000000000000000000600052601160045260246000fd5b7f4e487b7100000000000000000000000000000000000000000000000000000000600052602260045260246000fd5b6000601f19601f8301169050919050565b7f41756374696f6e206d757374206265206f70656e20666f72206d6f726520746860008201527f616e203020626c6f636b732e0000000000000000000000000000000000000000602082015250565b7f636f6e7472616374206f776e65722063616e6e6f74206265206a756467652e00600082015250565b7f52657365727665207072696365206d757374206265206772656174657220746860008201527f616e203021000000000000000000000000000000000000000000000000000000602082015250565b7f4f666665722070726963652064656372656d656e74206d75737420626520677260008201527f6561746572207468616e20302e00000000000000000000000000000000000000602082015250565b62000a1281620007d8565b811462000a1e57600080fd5b50565b62000a2c816200080c565b811462000a3857600080fd5b50565b6118888062000a4b6000396000f3fe60806040526004361061009c5760003560e01c80638da5cb5b116100645780638da5cb5b14610155578063b3f05b9714610180578063db2e1eed146101ab578063dfbf53ae146101d6578063eb91d37e14610201578063f283511f1461022c5761009c565b806312f53950146100a15780631998aeef146100cc578063278ecde1146100ea5780632e9c58bb146101135780634bb278f31461013e575b600080fd5b3480156100ad57600080fd5b506100b6610257565b6040516100c391906111fa565b60405180910390f35b6100d461026a565b6040516100e191906111c4565b60405180910390f35b3480156100f657600080fd5b50610111600480360381019061010c9190610f6d565b61070c565b005b34801561011f57600080fd5b506101286109e8565b60405161013591906111fa565b60405180910390f35b34801561014a57600080fd5b506101536109f1565b005b34801561016157600080fd5b5061016a610d48565b60405161017791906111df565b60405180910390f35b34801561018c57600080fd5b50610195610d6e565b6040516101a291906111fa565b60405180910390f35b3480156101b757600080fd5b506101c0610d81565b6040516101cd91906113c7565b60405180910390f35b3480156101e257600080fd5b506101eb610d87565b6040516101f891906111c4565b60405180910390f35b34801561020d57600080fd5b50610216610dad565b60405161022391906113c7565b60405180910390f35b34801561023857600080fd5b50610241610de7565b60405161024e91906111fa565b60405180910390f35b600860169054906101000a900460ff1681565b60006102aa6040518060400160405280600b81526020017f4269642043616c6c656421000000000000000000000000000000000000000000815250610dfa565b6102e86040518060400160405280600681526020017f48656c6c6f3f0000000000000000000000000000000000000000000000000000815250610dfa565b6103366040518060400160405280600e81526020017f61756374696f6e206f7665723a20000000000000000000000000000000000000815250600860149054906101000a900460ff16610e93565b600260009054906101000a900473ffffffffffffffffffffffffffffffffffffffff1673ffffffffffffffffffffffffffffffffffffffff163373ffffffffffffffffffffffffffffffffffffffff1614156103cb576103ca6040518060400160405280601f81526020017f6d6573736167652073656e646572206973206a75646765206164647265737300815250610dfa565b5b600260009054906101000a900473ffffffffffffffffffffffffffffffffffffffff1673ffffffffffffffffffffffffffffffffffffffff163373ffffffffffffffffffffffffffffffffffffffff16141561045c576040517f08c379a0000000000000000000000000000000000000000000000000000000008152600401610453906112e7565b60405180910390fd5b60006006544361046c9190611463565b905060006003548261047e9190611409565b60055461048b9190611463565b90506001548110156104d4576104b86040518060600160405280602d8152602001611826602d9139610dfa565b6001600860146101000a81548160ff0219169083151502179055505b600860149054906101000a900460ff1615610524576040517f08c379a000000000000000000000000000000000000000000000000000000000815260040161051b90611267565b60405180910390fd5b8034106106fa576001600860146101000a81548160ff0219169083151502179055506105846040518060400160405280601481526020017f41756374696f6e206973206e6f77206f7665722e000000000000000000000000815250610dfa565b33600860006101000a81548173ffffffffffffffffffffffffffffffffffffffff021916908373ffffffffffffffffffffffffffffffffffffffff16021790555034600481905550600073ffffffffffffffffffffffffffffffffffffffff16600260009054906101000a900473ffffffffffffffffffffffffffffffffffffffff1673ffffffffffffffffffffffffffffffffffffffff1614156106f5576000600760009054906101000a900473ffffffffffffffffffffffffffffffffffffffff1673ffffffffffffffffffffffffffffffffffffffff1660045460405161066d906111af565b60006040518083038185875af1925050503d80600081146106aa576040519150601f19603f3d011682016040523d82523d6000602084013e6106af565b606091505b50509050806106f3576040517f08c379a00000000000000000000000000000000000000000000000000000000081526004016106ea906112a7565b60405180910390fd5b505b610704565b6107033461070c565b5b339250505090565b6000600260009054906101000a900473ffffffffffffffffffffffffffffffffffffffff1673ffffffffffffffffffffffffffffffffffffffff163373ffffffffffffffffffffffffffffffffffffffff16141561093757600860169054906101000a900460ff16156107b4576040517f08c379a00000000000000000000000000000000000000000000000000000000081526004016107ab90611387565b60405180910390fd5b600860159054906101000a900460ff1615610804576040517f08c379a00000000000000000000000000000000000000000000000000000000081526004016107fb90611287565b60405180910390fd5b6004548214610848576040517f08c379a000000000000000000000000000000000000000000000000000000000815260040161083f90611347565b60405180910390fd5b6001600860166101000a81548160ff021916908315150217905550600860009054906101000a900473ffffffffffffffffffffffffffffffffffffffff1673ffffffffffffffffffffffffffffffffffffffff16826040516108a9906111af565b60006040518083038185875af1925050503d80600081146108e6576040519150601f19603f3d011682016040523d82523d6000602084013e6108eb565b606091505b50508091505080610931576040517f08c379a000000000000000000000000000000000000000000000000000000000815260040161092890611327565b60405180910390fd5b506109e5565b3373ffffffffffffffffffffffffffffffffffffffff168260405161095b906111af565b60006040518083038185875af1925050503d8060008114610998576040519150601f19603f3d011682016040523d82523d6000602084013e61099d565b606091505b505080915050806109e3576040517f08c379a00000000000000000000000000000000000000000000000000000000081526004016109da90611327565b60405180910390fd5b505b50565b60006001905090565b600073ffffffffffffffffffffffffffffffffffffffff16600260009054906101000a900473ffffffffffffffffffffffffffffffffffffffff1673ffffffffffffffffffffffffffffffffffffffff161415610a83576040517f08c379a0000000000000000000000000000000000000000000000000000000008152600401610a7a90611367565b60405180910390fd5b600860149054906101000a900460ff16610ad2576040517f08c379a0000000000000000000000000000000000000000000000000000000008152600401610ac9906113a7565b60405180910390fd5b600260009054906101000a900473ffffffffffffffffffffffffffffffffffffffff1673ffffffffffffffffffffffffffffffffffffffff163373ffffffffffffffffffffffffffffffffffffffff161480610b7b5750600860009054906101000a900473ffffffffffffffffffffffffffffffffffffffff1673ffffffffffffffffffffffffffffffffffffffff163373ffffffffffffffffffffffffffffffffffffffff16145b610bba576040517f08c379a0000000000000000000000000000000000000000000000000000000008152600401610bb190611307565b60405180910390fd5b600860159054906101000a900460ff1615610c0a576040517f08c379a0000000000000000000000000000000000000000000000000000000008152600401610c0190611287565b60405180910390fd5b600860169054906101000a900460ff1615610c5a576040517f08c379a0000000000000000000000000000000000000000000000000000000008152600401610c51906112c7565b60405180910390fd5b6001600860156101000a81548160ff0219169083151502179055506000600760009054906101000a900473ffffffffffffffffffffffffffffffffffffffff1673ffffffffffffffffffffffffffffffffffffffff16600454604051610cbf906111af565b60006040518083038185875af1925050503d8060008114610cfc576040519150601f19603f3d011682016040523d82523d6000602084013e610d01565b606091505b5050905080610d45576040517f08c379a0000000000000000000000000000000000000000000000000000000008152600401610d3c906112a7565b60405180910390fd5b50565b600760009054906101000a900473ffffffffffffffffffffffffffffffffffffffff1681565b600860159054906101000a900460ff1681565b60015481565b600860009054906101000a900473ffffffffffffffffffffffffffffffffffffffff1681565b60008060065443610dbe9190611463565b9050600060035482610dd09190611409565b600554610ddd9190611463565b9050809250505090565b600860149054906101000a900460ff1681565b610e9081604051602401610e0e9190611215565b6040516020818303038152906040527f41304fac000000000000000000000000000000000000000000000000000000007bffffffffffffffffffffffffffffffffffffffffffffffffffffffff19166020820180517bffffffffffffffffffffffffffffffffffffffffffffffffffffffff8381831617835250505050610f2f565b50565b610f2b8282604051602401610ea9929190611237565b6040516020818303038152906040527fc3b55635000000000000000000000000000000000000000000000000000000007bffffffffffffffffffffffffffffffffffffffffffffffffffffffff19166020820180517bffffffffffffffffffffffffffffffffffffffffffffffffffffffff8381831617835250505050610f2f565b5050565b60008151905060006a636f6e736f6c652e6c6f679050602083016000808483855afa5050505050565b600081359050610f678161180e565b92915050565b600060208284031215610f7f57600080fd5b6000610f8d84828501610f58565b91505092915050565b610f9f816114a9565b82525050565b610fae81611497565b82525050565b610fbd816114bb565b82525050565b6000610fce826113e2565b610fd881856113f8565b9350610fe88185602086016114f1565b610ff181611553565b840191505092915050565b6000611009602c836113f8565b915061101482611564565b604082019050919050565b600061102c601a836113f8565b9150611037826115b3565b602082019050919050565b600061104f602a836113f8565b915061105a826115dc565b604082019050919050565b6000611072601d836113f8565b915061107d8261162b565b602082019050919050565b60006110956011836113f8565b91506110a082611654565b602082019050919050565b60006110b8602f836113f8565b91506110c38261167d565b604082019050919050565b60006110db6015836113f8565b91506110e6826116cc565b602082019050919050565b60006110fe602b836113f8565b9150611109826116f5565b604082019050919050565b6000611121602b836113f8565b915061112c82611744565b604082019050919050565b60006111446020836113f8565b915061114f82611793565b602082019050919050565b60006111676000836113ed565b9150611172826117bc565b600082019050919050565b600061118a6031836113f8565b9150611195826117bf565b604082019050919050565b6111a9816114e7565b82525050565b60006111ba8261115a565b9150819050919050565b60006020820190506111d96000830184610fa5565b92915050565b60006020820190506111f46000830184610f96565b92915050565b600060208201905061120f6000830184610fb4565b92915050565b6000602082019050818103600083015261122f8184610fc3565b905092915050565b600060408201905081810360008301526112518185610fc3565b90506112606020830184610fb4565b9392505050565b6000602082019050818103600083015261128081610ffc565b9050919050565b600060208201905081810360008301526112a08161101f565b9050919050565b600060208201905081810360008301526112c081611042565b9050919050565b600060208201905081810360008301526112e081611065565b9050919050565b6000602082019050818103600083015261130081611088565b9050919050565b60006020820190508181036000830152611320816110ab565b9050919050565b60006020820190508181036000830152611340816110ce565b9050919050565b60006020820190508181036000830152611360816110f1565b9050919050565b6000602082019050818103600083015261138081611114565b9050919050565b600060208201905081810360008301526113a081611137565b9050919050565b600060208201905081810360008301526113c08161117d565b9050919050565b60006020820190506113dc60008301846111a0565b92915050565b600081519050919050565b600081905092915050565b600082825260208201905092915050565b6000611414826114e7565b915061141f836114e7565b9250817fffffffffffffffffffffffffffffffffffffffffffffffffffffffffffffffff048311821515161561145857611457611524565b5b828202905092915050565b600061146e826114e7565b9150611479836114e7565b92508282101561148c5761148b611524565b5b828203905092915050565b60006114a2826114c7565b9050919050565b60006114b4826114c7565b9050919050565b60008115159050919050565b600073ffffffffffffffffffffffffffffffffffffffff82169050919050565b6000819050919050565b60005b8381101561150f5780820151818401526020810190506114f4565b8381111561151e576000848401525b50505050565b7f4e487b7100000000000000000000000000000000000000000000000000000000600052601160045260246000fd5b6000601f19601f8301169050919050565b7f41756374696f6e206973206f7665722e204e6f7420616363657074696e67206260008201527f69647320616e796d6f72652e0000000000000000000000000000000000000000602082015250565b7f41756374696f6e20616c72656164792066696e616c697a65642e000000000000600082015250565b7f4661696c656420746f207061792077696e6e696e672062696420616d6f756e7460008201527f20746f206f776e65722e00000000000000000000000000000000000000000000602082015250565b7f57696e6e696e672062696420616c726561647920726566756e6465642e000000600082015250565b7f6a756467652063616e6e6f742062696421000000000000000000000000000000600082015250565b7f46696e616c697a652063616e206f6e6c792062652063616c6c6564206279206a60008201527f75646765206f722077696e6e6572210000000000000000000000000000000000602082015250565b7f4661696c656420746f20726566756e64206269642e0000000000000000000000600082015250565b7f526566756e64206d75737420626520657175616c20746f2077696e6e696e672060008201527f62696420616d6f756e7421000000000000000000000000000000000000000000602082015250565b7f43616e6e6f742063616c6c2066696e616c697a65206966206e6f206a7564676560008201527f2073706563696669656421000000000000000000000000000000000000000000602082015250565b7f4a756467652063616e206f6e6c792063616c6c20726566756e64206f6e636521600082015250565b50565b7f43616e6e6f742063616c6c2066696e616c697a65207768696c6520617563746960008201527f6f6e207374696c6c206f6e676f696e6721000000000000000000000000000000602082015250565b611817816114e7565b811461182257600080fd5b5056fe63757272656e74207072696365206861732066616c6c656e2062656c6f77207265736572766520707269636521a2646970667358221220a67718bae3c133a8475def2f1788d1b2212943dd2caf00144feb45ea06919b1e64736f6c63430008040033",
  "linkReferences": {},
  "deployedLinkReferences": {}
}